:020000040800F2
:10000000B8090020B5350008CD100008CF10000851
:10001000D3100008D7100008DB1000080000000013
:10002000000000000000000000000000DF100008D9
:10003000E110000800000000E3100008E5100008CF
:10004000CF350008CF350008CF350008353300081C
:10005000CF350008CF350008CF350008CF35000870
:10006000CF350008CF350008CF350008CF35000860
:10007000CF350008CF350008CF350008CF35000850
:10008000CF350008CF350008CF350008CF35000840
:10009000CF350008CF350008CF350008CF35000830
:1000A000CF350008CF350008CF350008CF35000820
:1000B000CF3500086F260008B7290008CF350008A3
:1000C000CF350008CF350008CF350008CF35000800
:1000D000CF35000829350008CF350008CF35000896
:1000E000CF35000811330008CF350008CF350008A0
:1000F000CF350008CF350008CF350008CF350008D0
:10010000CF350008CF350008CF350008CF350008BF
:10011000CF350008CF350008CF350008CF350008AF
:10012000CF350008CF350008CF350008CF3500089F
:10013000CF350008CF350008CF350008CF3500088F
:10014000CF350008CF350008CF350008CF3500087F
:10015000CF350008CF350008CF350008CF3500086F
:10016000CF350008CF350008CF350008CF3500085F
:10017000CF350008CF350008CF350008CF3500084F
:10018000CF350008CF35000800F002F800F065F820
:100190000AA090E8000C82448344AAF10107DA45E2
:1001A00001D100F05AF8AFF2090EBAE80F0013F0CF
:1001B000010F18BFFB1A43F00103184750F3020068
:1001C00070F3020010F8013B0A4413F0030408BF67
:1001D00010F8014B1D1108BF10F8015B641E05D01B
:1001E00010F8016B641E01F8016BF9D1002D15D0D8
:1001F00010F8014B03F00C030C2BA1EB04040ABF15
:1002000010F8013BA4EB8314A4EB032405F10103D4
:1002100014F8016B5B1E01F8016BF9D5914238BFF0
:1002200010F8013BD1D3704700230024002500269D
:10023000103A28BF78C1FBD8520728BF30C148BF49
:100240000B607047642905F07587002070471FB563
:1002500006F013F91FBD10B510BD06F0D5F8114614
:10026000FFF7F5FF00F0C3FD06F0F3F803B4FFF766
:10027000F2FF03BC03F0F8F808B5FE49002005F0D2
:10028000E9F8FD49002005F07FF901F07EFE45F216
:100290005840A023802200210090084601F04CF82D
:1002A000F64850231A46462100902D2001F083FD88
:1002B00008BDF348EF4909680160F248EE49096852
:1002C0000160704710B5EB49002005F0C3F8EA491A
:1002D000002005F059F910BD0EB5E64843780278C4
:1002E000E9A1EE4805F0EAFEE34883784278ECA104
:1002F000F04805F0E3FE00200C2145F258424FF68D
:10030000FF73CDE900210290E44A0521084601F07F
:1003100077FC00200C2145F258424FF6FF73CDE9DF
:1003200000210290E34A1021052001F069FCD44825
:1003300043780278E0A1E64805F0C0FED148837812
:100340004278E4A1E94805F0B9FE00200C2145F20D
:1003500058424FF6FF73CDE900210290DC4A1E217E
:10036000052001F04DFC00200C2145F258424FF6CB
:10037000FF73CDE900210290DC4A2D21052001F018
:100380003FFC0EBD012806D0022810D003281AD049
:1003900004284BD123E0BA490978491CB84A1170A6
:1003A00011460978182901D1002111703EE0B449A5
:1003B0004978491CB24A5170114649783C2901D10B
:1003C0000021517032E0AF494978491CAD4A517063
:1003D000114649780D2901D10121517026E0A94922
:1003E0008978491CA74A9170D178CA1701EB92729B
:1003F00092106AB9A3498A784978491EBC4B53F8D0
:100400002110491C8A4210D101219E4A91700CE0B2
:100410009C498A784978491EB64B53F82110491CEB
:100420008A4202D10121974A917000BF00BF954ACC
:10043000D178CA1701EB927292108AB991498A78E1
:100440004978491EAA4B53F821108A4219DD8D497B
:100450004978491E1A4612F821108A4A917010E014
:1004600088498A784978491EA24B53F821108A425C
:1004700007DD84494978491E1A4612F82110814A3D
:1004800091707047012806D0022812D003281ED090
:10049000042857D129E07A490978002905DD7849EF
:1004A0000978491E764A117002E01721744A1170CA
:1004B00048E073494978002905DD71494978491EAA
:1004C0006F4A517002E03B216D4A51703AE06D492C
:1004D0004978012905DD6B494978491E694A5170FF
:1004E00002E00C21674A51702CE0664AD178CA17A5
:1004F00001EB9272921092B962498978012905DD67
:1005000060498978491E5F4A91701AE05D494978CF
:10051000491E774A12F821105A4A917011E0594940
:100520008978012905DD57498978491E554A917016
:1005300007E054494978491E6E4A12F82110514A81
:10054000917000BF00BF4F4AD178CA1701EB927279
:1005500092108AB94B498A784978491E644B53F8FE
:1005600021108A4219DD47494978491E1A4612F876
:100570002110444A917010E042498A784978491E16
:100580005C4B53F821108A4207DD3E494978491EE9
:100590001A4612F821103B4A917070470EB5364842
:1005A0004078401C5449086022E03649C878C11799
:1005B00000EB9171891059B94F480068401E4C49B1
:1005C00051F820004D49096808444C4908600AE088
:1005D00049480068401E474951F8200047490968CA
:1005E00008444649086044480068401C4249086085
:1005F00024484078401E404909688842D5DA21499C
:10060000C878C11700EB9171891029B91A49497846
:10061000374A52F8211004E017494978354A52F810
:100620002110354A116014484078164949788842AB
:100630006AD0144880781146096808440E498978C0
:10064000401A2E490968084400EB4000C000C0EB86
:10065000001080000A490978064A1278891AC1EB0D
:10066000011100EB810106484078024A5278801A55
:10067000084446E0000000200400002084640008D4
:10068000080000200C00002054696D65203D2025E5
:100690003032643A25303264000000000802002045
:1006A00044617465203D20253032642D253032644C
:1006B00000000000240200205365742054696D6519
:1006C000203D20253032643A25303264000000009D
:1006D000380200205365742044617465203D202554
:1006E0003032642D253032640000000054020020B6
:1006F00040000020100000207C000020740000203A
:1007000002E0FB4908601BE0FA488078FA498978E2
:10071000401A00EB4000C000C0EB00108000F74919
:100720000978F74A1278891AC1EB011100EB8100B0
:10073000F2494978F24A5278891A0844EC4908602B
:10074000EB480068002814DDEE48006888B90020F6
:100750000C2145F258424FF6E073CDE9002102909A
:10076000E9A278210A2001F04BFA0120E54908604E
:1007700043E0DF480068002815DDE24800680128F2
:1007800011D100200C2145F258424FF6E073CDE91B
:1007900000210290DEA278210A2001F031FA002027
:1007A000D84908600EBDD2480068002825DCD5482D
:1007B000006810BB00200C2145F258424FF6E07350
:1007C000CDE900210290D4A278210A2001F018FA84
:1007D0004FF4FA6002F028FE00200C2145F2584246
:1007E0004FF6E073CDE900210290C9A278210A20DA
:1007F00001F006FA0020C349086000BFD2E70EB539
:10080000BD484078401CC649086022E0B949C87814
:10081000C11700EB9171891059B9C1480068401E99
:10082000C04951F82000C04909680844BE49086021
:100830000AE0BB480068401EBC4951F82000BA4994
:1008400009680844B8490860B5480068401CB449C4
:100850000860A8484078401EB14909688842D5DA46
:10086000A449C878C11700EB9171891029B9A24930
:100870004978AC4A52F8211004E09F494978AB4AC4
:1008800052F82110A64A11609B484078994949784E
:10089000884222D0974880781146096808449649D2
:1008A0008978401AA0490968084400EB4000C0005C
:1008B000C0EB0010800091490978914A1278891A9A
:1008C000C1EB011100EB81018C4840788C4A5278D1
:1008D000801A0844864908601BE08648807886496B
:1008E0008978401A00EB4000C000C0EB0010800087
:1008F00082490978824A1278891AC1EB011100EB0A
:1009000081007E4949787E4A5278891A084478499C
:10091000086077480068002826DC7A4800680128CB
:1009200022D100200C2145F258424FF6E073CDE968
:10093000002102907EA278210A2001F061F940F6A0
:10094000AC5002F071FD00200C2145F258424FF6E8
:10095000E073CDE90021029077A278210A2001F00E
:100960004FF90020674908600EBD0EB500206549AB
:100970000860102145F258424FF6E073CDE900219E
:1009800002906FA278210A2001F03AF95B485C4995
:100990000968016057485849096801600EBD10B5E3
:1009A00069480068012828D168480068012804D0F7
:1009B00002F026F8012065490860654800680128B2
:1009C00004D102F07FF801206249086060480068A5
:1009D00040B960480068012801D102F011F80020F8
:1009E0005C4908605A48006808B902F01EF8584887
:1009F0000068012801D102F08DF8534800680228F0
:100A00000AD152480068022804D001F018FD0220E3
:100A10004E49086001F050FD4B48006803280AD198
:100A20004A480068032804D001F0F3FE0320474938
:100A3000086001F011FF4448006804281AD14348B7
:100A40000068042804D0FFF717FC04203F49086021
:100A50004148008820B9FFF72CFC01203E4908805E
:100A60003A480068042801D1FFF72CFCFFF734FC5A
:100A7000FFF7C5FE10BD34480068042803DB0120E1
:100A800031490860704730480068401C2E490860B2
:100A900000BFF7E708B531480068401C2F490860DF
:100AA00008460068012806D002280ED0032857D037
:100AB00004287BD167E04FF4FC602C2354221946B4
:100AC00000904C2000F06BFC70E045F258402C2365
:100AD0005422194600904C2000F061FC4FF4FC6059
:100AE0002C23612219460090592000F058FC5DE04B
:100AF000780000200C0000200400002008000020E6
:100B00000000002070000020534554210000000028
:100B100020202020200000004552524F52000000AB
:100B20007C00002040000020740000201000002005
:100B300054494D45210000002020202020200000A5
:100B40002020202000000000880000208C000020D1
:100B5000980000209400002084000020A4000020C1
:100B600045F258402C23612219460090592000F08C
:100B700016FC4FF4FC603B235422194600904C2095
:100B800000F00DFC12E045F258403B235422194678
:100B900000904C2000F003FC4FF4FC603B236122EA
:100BA00019460090592000F0FAFB00BF00BFF8483A
:100BB000006805280CD145F258403B2361221946B4
:100BC0000090592000F0EBFB0020F149086008BDBF
:100BD00000BFFCE708B5EF480068401CED4908601D
:100BE0000846006804284BDC0846006804280CD13D
:100BF00045F258403423282232210090102000F082
:100C000024FC0020E349086008BDE248006802288F
:100C100019DB45F25840DF4900900968C1F1050130
:100C200001EB4101102303EBC1018AB2D9490968E4
:100C3000C1F1040101EB410103EBC10188B234238E
:100C4000322100F002FCD3480068C8B14FF4FC60C8
:100C5000D04900900968C1F1040101EB4101102362
:100C600003EBC1018AB2CB490968C1F1030101EB71
:100C7000410103EBC10188B23423322100F0E5FBCE
:100C800000BFC1E708B5C4480068401CC2490860FD
:100C900008460068042850DC08460068042809D18A
:100CA00045F2584012232222102100900A2000F021
:100CB000CCFB21E0B848006802281DDBB64800687C
:100CC000042819DA45F25840B34900900968C1F187
:100CD000050101EB41010A2303EBC1018AB2AE49D0
:100CE0000968C1F1040101EB410103EBC10188B2C4
:100CF0001223102100F0A9FBA7480068E8B1A6481C
:100D00000068042819D04FF4FC60A34900900968DA
:100D1000C1F1040101EB41010A2303EBC1018AB2D5
:100D20009D490968C1F1030101EB410103EBC101D8
:100D300088B21223102100F088FB97480068082829
:100D400047DC95480068042843DB9348006808287E
:100D50000CD145F25840212354221F2100904420F9
:100D600000F073FB00208C49086008BD8A480068C9
:100D7000052817DB88480068082813DA45F2584030
:100D8000854900900988091F142303EB01118AB2D9
:100D900081490988491F03EB011188B221231F21D2
:100DA00000F053FB7C48006898B14FF4FC607A492E
:100DB00000900988C91E142303EB01118AB27649F9
:100DC0000988091F03EB011188B221231F2100F0BC
:100DD0003CFB00BFC9E771480068012803D100202F
:100DE0006E49086002E001206C49086070470EB54A
:100DF0000021042002F056FA4FF4A06002F0FAFB42
:100E0000A82002F0AFFA4FF4E13002F03BFB00F013
:100E100073FA01F0BBF901F0B8F802F08EF945F26F
:100E20005840A023802200210090084600F084FA58
:100E30005B4880231A4600210090084600F0BBFF63
:100E400000200C2145F258424FF6FF73CDE90021F6
:100E5000029054A2822100F0D3FE40F6AC5002F082
:100E6000E3FA25E15348008881B2002001F0ACF993
:100E7000514908800846008800287BD00846008831
:100E8000082821D2DFE800F020042177EFBBEEE153
:100E900048480068012801D1FFF79DFF45480068D8
:100EA000022801D101F0A9FA42480068032805D1BF
:100EB00001F0F8FC012801D101F04EFC3D4800682A
:100EC000042801D1FFF751FDE9E03A480068012804
:100ED00017D13A48006808B9012000E000203749DE
:100EE000086008460068012802D14FF6E07001E072
:100EF00045F258400B23602201210090562000F05B
:100F0000A4FA2F48008858B92A480068022807D157
:100F100001202B49088042F2CF01092001F07BFB20
:100F20002848008870B92348006803280AD101F0D6
:100F300032FC012806D12349088042F2CF01092062
:100F400001F00DFD1B480068042802D1FFF726FBC5
:100F50000FE018480068022801D101F058FA15483E
:100F60000068032805D101F016FC012801D101F029
:100F7000FDFB94E094E00F480068012828D1064862
:100F80000068042820DA0448006801F033FE1FE0FE
:100F9000A4000020A00000209C0000209800002059
:100FA000A494000842616B612D2D2D2D42616B616F
:100FB000210000008800002090000020A8000020F0
:100FC00080000020820000203A48006801F088FE7E
:100FD00039480068022801D101F094FA36480068C7
:100FE000032803D13548006801F05FFC32480068EF
:100FF000042803D132480068FFF7C4F94FE02E48B7
:101000000068012804D12F48006808B9FFF73AFEAC
:1010100029480068022807D101F00EFA012803D1FF
:1010200001F0C9FA01F00BFA23480068032805D142
:1010300001F038FC012801D1FFF7CCFD1E48006803
:10104000042801D1FFF726FD29E01B48006801288C
:101050000ED118480068042806DA1648006801F026
:10106000F9FD05E015E017E01248006801F0F2FE16
:1010700011480068032803D11048006801F042FCC1
:101080000D480068042803D10D480068FFF7FAF9FD
:1010900005E0FFF7F0FC02E0FFF7EDFC00BF05E024
:1010A00009480068012801D101F06DFFFFF777FCC6
:1010B000D8E600009C00002088000020A00000204E
:1010C000A400002098000020A8000020704700BF66
:1010D000FEE700BFFEE700BFFEE700BFFEE7704788
:1010E00070477047704700000CB5002001900090D9
:1010F0007648006840F480307449086000BF734847
:10110000006800F4003000900198401C01900098A5
:1011100018B90198B0F5A04FF1D16C48006800F4FF
:10112000003010B10120009001E0002000900098F4
:10113000012846D165484030006840F0805063493E
:10114000403108606248006840F4404060490860EF
:101150005E48083000685D4908310860084600684C
:1011600040F4004008600846006840F4A050086061
:101170005848091F0860081F006840F08070091F68
:10118000086000BF5148006800F000700028F9D0E6
:1011900040F20570504908604C480830006820F063
:1011A00003004A49083108600846006840F0020020
:1011B000086000BF45480830006800F00C000828AF
:1011C000F8D10CBD10B54548006840F470004349A3
:1011D00008603E48006840F001003C49086000207B
:1011E0003A4908310860394800683D4908403749A4
:1011F00008603C48091D0860081F006820F4802032
:10120000091F0860002031490C310860FFF76CFFAE
:101210004FF0006031498039086010BD70B5002082
:101220000022022300240221284D08352D6805F0F4
:101230000C0020B1042806D0082834D107E02A4D3C
:101240002A4E356033E02A4D284E35602FE01F4D81
:101250002D1D2D68C5F380541C4D2D1D2D6805F0E6
:101260003F0154B1224DB5FBF1F5184E361D3668DD
:10127000C6F3881605FB06F209E01B4DB5FBF1F538
:10128000124E361D3668C6F3881605FB06F20F4D62
:101290002D1D2D68C5F301456D1C6B00B2FBF3F5E8
:1012A000124E356003E0104D104E356000BF00BF98
:1012B000064D08352D68C5F303150E4E705D0B4DB8
:1012C0002D68C540094E356070BD000000380240F1
:1012D0000070004008544007003C024088ED00E0E8
:1012E000FFFFF6FE103000240024F400AC000020C4
:1012F00000127A00B00000201CB50121202002F06D
:101300000DFD4FF4C060009001208DF80400002016
:101310008DF8060003208DF8050001208DF80700E8
:101320006946044802F05CFA4FF4C061014802F0DB
:10133000D3FA1CBD001402402DE9F04706460F46C3
:1013400014461D46DDF820A0681E83B2601E82B2DE
:101350003946304600F0F8FDB8460EE0B14606E0EA
:10136000504600F0D8FD09F101001FFA80F9A145AF
:10137000F6DB08F101001FFA80F8A845EEDBBDE8B6
:10138000F08770B504460D4616462B462246294680
:10139000204600F0D9FD304600F0BDFD70BD2DE9BE
:1013A000FF4F85B081468A46002003908346079808
:1013B000A0EB09050898A0EB0A06CDF80890CDF837
:1013C00004A0002D01DD012705E00DB9002702E092
:1013D0004FF0FF376D42002E02DD4FF0010806E0AE
:1013E00016B94FF0000802E04FF0FF387642B542E0
:1013F00001DD2C4600E03446002004901EE0019AF6
:1014000091B2029A90B2129AFFF7BBFF0398284458
:101410000390B3440398A04205DD0398001B03909A
:10142000029838440290A34504DDABEB040B01980D
:10143000404401900498401C80B20490611C0498C0
:101440008842DCDB09B0BDE8F08F2DE9F8430546A2
:101450000E4617469846089C33463A46314628467B
:101460000094FFF79CFF43462A46314628460094E5
:10147000FFF795FF43463A46414628460094FFF75A
:101480008EFF43463A46314638460094FFF787FFC1
:10149000BDE8F8832DE9F04706460F469046994689
:1014A0000025444641E07A1B91B2321B90B24A4675
:1014B000FFF767FF7A1B91B2321990B24A46FFF7E5
:1014C00060FF3A1991B2721B90B24A46FFF759FF7A
:1014D0003A1B91B2721B90B24A46FFF752FF7A193B
:1014E00091B2321990B24A46FFF74BFF3A1B91B2C4
:1014F000721990B24A46FFF744FF3A1991B2721935
:1015000090B24A46FFF73DFF7A1991B2321B90B272
:101510004A46FFF736FF6D1C05FB05F004FB04018E
:1015200008FB08F0814200DD641EA542BBDDBDE87A
:10153000F0872DE9FF5F0646894692469B460F9C41
:101540000020039000962046E21704EB5272D2105E
:101550002146E31704EB5373DB10A4EBC3030BB179
:10156000012300E000231A44624392B20192052055
:101570000290002571E005EB8510FA4911F8100082
:101580009AF80010884265D105EB8510F54901EB0A
:10159000400040789AF8011088425BD109EB0400C2
:1015A000401E83B23019401E82B24946304600F0D8
:1015B000CBFC00274BE04FF0000842E01098F8B950
:1015C00005EB8510E74901EB4000801CC05D01215F
:1015D00001FA08F1084018B1584600F09CFC02E0FE
:1015E0000E9800F098FC0398401CC0B2039003983A
:1015F00090FBF4F104FB1100F8B90020039023E004
:1016000005EB8510D74901EB4000801CC05D01212E
:1016100001FA08F1084020B15A4649463046FFF722
:10162000B0FE701C86B20098301AA04205D1009E10
:1016300009F101001FFA80F906E008F1010000F04D
:10164000FF08B8F1080FB9DB00BF781CC7B20198DA
:101650008742B0DB00BF681C85B2029885428ADBF6
:10166000BDE8FF9F2DE9FF5F0646894692469B46EF
:101670000F9C0020039000962046E21704EB527264
:10168000D2102146E31704EB5373DB10A4EBC30322
:101690000BB1012300E000231A44624392B201928D
:1016A00005200290002579E005EB850000EB451050
:1016B000AD4911F810009AF8001088426BD105EB83
:1016C000850000EB4510A84901EB400040789AF8EE
:1016D000011088425FD109EB0400401E83B230192B
:1016E000401E82B24946304600F02EFC00274FE0F3
:1016F0004FF0000846E0109808BB05EB850000EBB2
:101700004510994901EB4000801CC05D012101FAA0
:1017100008F1084018B1584600F0FDFB02E00E98B1
:1017200000F0F9FB0398401CC0B20390039890FBB3
:10173000F4F104FB110008BB0020039025E005EB49
:10174000850000EB4510884901EB4000801CC05D1E
:10175000012101FA08F1084020B15A4649463046B5
:10176000FFF70FFE701C86B20098301AA04205D118
:10177000009E09F101001FFA80F906E008F101005E
:1017800000F0FF08B8F1080FB5DB00BF781CC7B246
:1017900001988742ACDB00BF681C85B20298854285
:1017A00082DBBDE8FF9F2DE9FF5F06468946924632
:1017B0009B460F9C0020039000962046E21704EB06
:1017C0005272D2102146E31704EB5373DB10A4EBE3
:1017D000C3030BB1012300E000231A44624392B219
:1017E000019205200290002571E005EB05105F498C
:1017F00011F810009AF80010884265D105EB051029
:101800005A4901EB400040789AF8011088425BD1B8
:1018100009EB0400401E83B23019401E82B24946D3
:10182000304600F091FB00274BE04FF0000842E00B
:101830001098F8B905EB05104C4901EB4000801CED
:10184000C05D012101FA08F1084018B1584600F0C6
:1018500062FB02E00E9800F05EFB0398401CC0B2F1
:101860000390039890FBF4F104FB1100F8B90020F9
:10187000039023E005EB05103C4901EB4000801C80
:10188000C05D012101FA08F1084020B15A464946DD
:101890003046FFF776FD701C86B20098301AA042E1
:1018A00005D1009E09F101001FFA80F906E008F158
:1018B000010000F0FF08B8F1080FB9DB00BF781C89
:1018C000C7B201988742B0DB00BF681C85B202989E
:1018D00085428ADBBDE8FF9F2DE9FF5F064689460A
:1018E00092469B460F9C0020039000962046E217EC
:1018F00004EB5272D2102146E31704EB5373DB1052
:10190000A4EBC3030BB1012300E000231A4462439C
:1019100092B2019205200290002581E005EB85003E
:1019200000EBC500124911F810009AF80010884227
:1019300073D105EB850000EBC5000D4901EB4000BC
:1019400040789AF80110884267D109EB0400401EE4
:1019500083B23019401E82B24946304600F0F4FA94
:10196000002757E03E6A0108CC6801082268010898
:10197000A06701084FF0000846E0109808BB05EB8F
:10198000850000EBC500FE4901EB4000801CC05DF6
:10199000012101FA08F1084018B1584600F0BBFADD
:1019A00002E00E9800F0B7FA0398401CC0B2039012
:1019B000039890FBF4F104FB110008BB0020039096
:1019C00025E005EB850000EBC500ED4901EB40008B
:1019D000801CC05D012101FA08F1084020B15A467F
:1019E00049463046FFF7CDFC701C86B20098301A8D
:1019F000A04205D1009E09F101001FFA80F906E01E
:101A000008F1010000F0FF08B8F1080FB5DB00BFD6
:101A1000781CC7B201988742ACDB00BF681C85B256
:101A200002988542FFF67AAFBDE8FF9F2DE9FE4F91
:101A30008046894617469A46DDE90D460C9D36E0FC
:101A40000C2C09D153463A4649464046CDE9014659
:101A50000095FFF741FF25E0102C09D153463A4687
:101A600049464046CDE901460095FFF79CFE19E046
:101A7000182C09D153463A4649464046CDE901461D
:101A80000095FFF7EFFD0DE0202C09D153463A46B3
:101A900049464046CDE901460095FFF74AFD01E081
:101AA000BDE8FE8FBF1C08EB04001FFA80F83878F1
:101AB0000028C5D100BFF3E72DE9FF5F80468A46C5
:101AC00017469B460F9D00200290CDF800802846C7
:101AD00005EBD071C1F347042046E21704EB5272C4
:101AE000D2102146E31704EB5373DB10A4EBC303BE
:101AF0000BB1012300E000231A446A4392B2019221
:101B0000A7F12000C7B20AEB0500401E83B208EB24
:101B10000400401E82B25146404600F015FA0026ED
:101B200069E00C2D07D107EB4700964901EB8000D7
:101B3000805D03901BE0102D05D1934800EB07104A
:101B4000805D039013E0182D07D107EB47008F4904
:101B500001EB0010805D039009E0202D05D18C4839
:101B600000EB8710805D039001E0BDE8FF9F4FF020
:101B700000093AE01098C8B9012000FA09F0039969
:101B8000084018B1584600F0C6F902E00E9800F07F
:101B9000C2F90298401CC0B20290029890FBF4F186
:101BA00004FB1100E8B90020029021E0012000FAB6
:101BB00009F00399084020B15A4651464046FFF7C4
:101BC000E0FB08F101001FFA80F80098A8EB000084
:101BD000A04206D1DDF800800AF101001FFA80FA68
:101BE00006E009F1010000F0FF09B9F1080FC1DBBF
:101BF00000BF701C86B20198864292DB00BFB4E73A
:101C00002DE9FE4F06460F4614469846DDE90D5A6B
:101C1000DDF8309010E0CDE9015ACDF8009022783F
:101C2000434639463046FFF747FF284605EBD0715B
:101C300006EB61018EB2641C20780028EBD1BDE870
:101C4000FE8F10B50246012000E050430B1EA1F1AB
:101C50000104E1B2F9D110BD2DE9FF4F85B007466F
:101C600091461D46DDE913A600200490304606EBA0
:101C7000D071C1F3470B002434E0281B401EC1B2D1
:101C80000A20FFF7DEFFB9FBF0F00A21B0FBF1F20A
:101C900001FB12080498A0B9681EA04211DDB8F13A
:101CA000000F0CD1002004FB0B71CDE900A60290BF
:101CB00088B22022129B0699FFF7FEFE10E0012059
:101CC0000490002008F13001CAB204FB0B71CDE989
:101CD00000A6029088B2129B0699FFF7EDFE00BFA6
:101CE000601CC4B2AC42C8DB09B0BDE8F08F2DE97E
:101CF000FF4F2DED020B2DED028B83B00746B0EEAA
:101D0000408A1446DDE91486304606EBD071C1F3F3
:101D1000470A9FED200A28EE000ABCEEC00A10EE2A
:101D2000100A1FFA80FB00253DE0601B401EC1B277
:101D30000A20FFF786FFBBFBF0F00A21B0FBF1F2AF
:101D400001FB1209A01EA84210D10020A11E01FB18
:101D50000A71CDE90086029088B22E220A9B08996A
:101D6000FFF7AAFE681CC5B2601CC4B2002009F1CE
:101D70003001CAB205FB0A71CDE9008602900BE082
:101D8000A0670108AC33010820380108103E0108A3
:101D9000E04F01080000C84288B20A9B0899FFF78B
:101DA0008BFE681CC5B2A542BFDB03B0BDEC028B45
:101DB00006B0BDE8F08F2DE9F05F0746884615466E
:101DC0001E46DDF82890002408EB0600401E83B272
:101DD0007819401E82B24146384600F0B5F8A24656
:101DE00018E04FF0000B0FE019F8140000F08DF828
:101DF000012101EB440119F8010000F086F8641C90
:101E00000BF101001FFA80FBB345EDDB0AF1010085
:101E10001FFA80FAAA45E4DBBDE8F09F1CB501215A
:101E20005F2001F07BFF4FF48050009001208DF87F
:101E3000040000208DF8060003208DF80500012025
:101E40008DF807006946CE4801F0CAFC4FF4805176
:101E5000CB4801F041FD48F23200009001208DF89E
:101E6000040000208DF8060003208DF805000120F5
:101E70008DF807006946C34801F0B2FC48F2320110
:101E8000C04801F029FD4FF4A060009001208DF8BA
:101E9000040000208DF8060003208DF805000120C5
:101EA0008DF807006946B84801F09AFC4FF4A0612C
:101EB000B54801F011FD1CBD70B504460221B148C2
:101EC00001F00CFD002519E04FF48051AC4801F001
:101ED00005FD04F0800020B12021AA4801F0FCFC9F
:101EE00003E02021A74801F0F9FC4FF48051A448F9
:101EF00001F0F2FC6006040E681CC5B2082DE3DB9D
:101F00000221A04801F0E8FC70BD10B5044620464F
:101F1000FFF7D2FF10BD10B504462012FFF7CCFF2B
:101F2000E0B2FFF7C9FF10BD10B504464FF4004101
:101F3000944801F0D3FC2046FFF7BEFF4FF4004168
:101F4000904801F0C9FC10BD2DE9F04104460D4652
:101F500016461F462A20FFF7E7FFA11C88B2FFF7AD
:101F6000DAFFB11C88B2FFF7D6FF2B20FFF7DCFFAA
:101F7000691C88B2FFF7CFFF791C88B2FFF7CBFF4F
:101F80002C20FFF7D1FFBDE8F08110B5FFF746FF29
:101F900010217C4801F0A2FC642001F045FA1021D8
:101FA000784801F099FC642001F03EFA4FF480710A
:101FB000754801F091FC642001F036FA1120FFF71A
:101FC000B3FF782001F030FAB120FFF7ADFF052014
:101FD000FFF79BFF3C20FFF798FF3C20FFF795FFA2
:101FE000B220FFF7A1FF0520FFF78FFF3C20FFF78E
:101FF0008CFF3C20FFF789FFB320FFF795FF0520FA
:10200000FFF783FF3C20FFF780FF3C20FFF77DFFB9
:102010000520FFF77AFF3C20FFF777FF3C20FFF712
:1020200074FFB420FFF780FF0320FFF76EFFC0208E
:10203000FFF77AFF2820FFF768FF0820FFF765FF0A
:102040000420FFF762FFC120FFF76EFFC020FFF7FB
:102050005CFFC220FFF768FF0D20FFF756FF00204E
:10206000FFF753FFC320FFF75FFF8D20FFF74DFF02
:102070002A20FFF74AFFC420FFF756FF8D20FFF705
:1020800044FFEE20FFF741FFC520FFF74DFF1A2068
:10209000FFF73BFF3620FFF747FFC020FFF735FF74
:1020A000E020FFF741FF0420FFF72FFF2220FFF77A
:1020B0002CFF0720FFF729FF0A20FFF726FF2E201D
:1020C000FFF723FF3020FFF720FF2520FFF71DFF3C
:1020D0002A20FFF71AFF2820FFF717FF2620FFF717
:1020E00014FF2E20FFF711FF3A20FFF70EFF00200C
:1020F000FFF70BFF0120FFF708FF0320FFF705FFA5
:102100001320FFF702FFE120FFF70EFF0420FFF787
:10211000FCFE1620FFF7F9FE0620FFF7F6FE0D2065
:10212000FFF7F3FE2D20FFF7F0FE2620FFF7EDFE70
:102130002320FFF7EAFE2720FFF7E7FE2720FFF71F
:10214000E4FE2520FFF7E1FE2D20FFF7DEFE3B2019
:10215000FFF7DBFE0020FFF7D8FE0120FFF7D5FEDA
:102160000420FFF7D2FE1320FFF7CFFE3A20FFF73F
:10217000DBFE0520FFF7C9FE2920FFF7D5FE10BDC5
:1021800000180240000C0240001002401CB5012162
:10219000112001F0C3FDFC20009000208DF8040008
:1021A00003208DF8050001208DF8070069465D4881
:1021B00001F016FB0120009002208DF8070069460F
:1021C000594801F00DFB1CBD70B505460C4615B114
:1021D00001205649087055480078002874D0102115
:1021E000504801F05FFBF0B108214E4801F05AFB66
:1021F000C8B104214B4801F055FBA0B1202149484A
:1022000001F050FB78B14021464801F04BFB50B142
:102210008021444801F046FB28B10121424801F0E9
:1022200041FB012850D10A2001F0FEF800203F496F
:10223000087010213B4801F035FB08B9012070BD42
:102240000821384801F02EFB08B90220F7E70421E5
:10225000344801F027FB68B9012C03D0032C01D0CE
:10226000042C05D1012031490870962001F0DCF8DA
:102270000320E4E701212C4801F014FB012801D1DF
:102280000420DCE72021274801F00CFB08B90520D9
:10229000D5E74021234801F005FB08B90620CEE729
:1022A0008021204801F0FEFAD0BB012C03D0032C82
:1022B00001D0042C05D101201C490870962001F0A2
:1022C000B3F80720BBE7FFE71021164801F0EAFA50
:1022D000012825D10821134801F0E4FA01281FD173
:1022E0000421104801F0DEFA012819D120210D48FF
:1022F00001F0D8FA012813D140210A4801F0D2FA9E
:1023000001280DD18021074801F0CCFA012807D11E
:102310000121054801F0C6FA10B9012003490870EF
:1023200000208CE70010024000000240C0000020A6
:10233000D6480068B0F57A7F07D10020D3490860FD
:10234000D3480068401CD2490860D14800683C2846
:1023500007D10020CE490860CE480068401CCD4916
:102360000860CC4800683C2807D10020C9490860B3
:10237000C9480068401CC8490860C748006864280C
:1023800002D10020C4490860C0480068401CBF4911
:102390000860704730B50A24B0FBF4F3B0FBF4F5E5
:1023A00004FB150203F130040C7002F130044C7090
:1023B00030BD70B5B54C2468642594FBF5F1B34C81
:1023C000246894FBF5F605FB16440A2594FBF5F208
:1023D000AE4C246894FBF5F605FB164301F130047E
:1023E000047002F13004447003F13004847070BD55
:1023F000302101704170817070470020A34908604E
:10240000A3490860A3490860A3490860704710B554
:10241000A248008808B1012000E000200246012106
:102420009F4802F047FD9D48008808B9012000E060
:1024300000209A49088010BD9848008870470EB562
:10244000FFF7A3FD45F25840A02380220021009011
:102450000846FEF771FF0020102145F258424FF464
:102460007843CDE9002102908EA20A210320FFF7D4
:10247000C7FB8F4878231A46232100900320FFF7DB
:102480009AFC00200C2145F258420346CDE9002178
:10249000029088A26E213720FFF7B2FB00200C21AA
:1024A00045F258420346CDE90021029084A27E21E4
:1024B0003720FFF7A5FB0EBD0EB5834974480068B1
:1024C000FFF768FF8049C91E72480068FFF762FF86
:1024D0007D49891F70480068FFF75CFF7A48C01C7F
:1024E000FFF767FF0020102145F258424FF6FF73B7
:1024F000CDE900210290744A921F1E211220FFF79D
:102500007FFB0EBD0EB571480068042802D1002083
:102510006E4908606D48006800EB80006C4A02EB71
:10252000800000F10B015A480068FFF733FF67484D
:10253000006800EB8000664A02EB800000F10801B1
:1025400054480068FFF726FF6048006800EB8000F1
:102550005F4A02EB8000411D4F480068FFF71AFFF9
:102560005A49096801EB8101594A02EB810101F1E5
:102570000E00FFF71EFF00200C2145F25842CDE966
:10258000002102905148006800EB8000504B03EBA3
:1025900080024E48008800EB40008000323081B25B
:1025A0004FF6FF731220FFF72BFB48480068401CD2
:1025B000464908600EBD10B5002426E004EB8400F7
:1025C000434A02EB800000F10B010020FFF7E2FE1E
:1025D00004EB84003E4A02EB800000F10801002079
:1025E000FFF7D8FE04EB8400394A02EB8000411D5E
:1025F0000020FFF7CFFE04EB8401354A02EB810196
:1026000001F10E00FFF7F4FE641C032CD6DD002060
:102610002E49086010BD7FB505460C4601210220F9
:1026200001F0C5FB0295ADF804400020ADF80600AE
:10263000ADF80C0001A91A4801F09BFF01221146D8
:10264000174802F037FC0121154802F01BF81D2045
:102650008DF8000001208DF8010003208DF80200A4
:1026600001208DF80300684600F0C9FF7FBD10B55A
:1026700001210B4802F035FC012805D1FFF758FE77
:102680000121074802F03EFC10BD0000E0000020E0
:10269000D4000020D8000020DC000020E40000204E
:1026A0000004004053544F50574154434800000029
:1026B000C86C010844657369676E656420427900DF
:1026C000592E572E4A000000CA0000203801002071
:1026D000E600002010B5BF480068002808DA40F284
:1026E000E730BC490860BC480068401EBA49086031
:1026F000B9480068002807DA3B20B7490860B748A6
:102700000068401EB5490860B4480068002807DA30
:102710003B20B2490860B2480068401EB0490860DA
:10272000AC48006888B9AC48006870B9AB4800682C
:1027300058B9AB48006840B900220121A94802F00D
:10274000B9FB0120A849088010BDA2480068401EBE
:10275000A049086000BFF7E700209E4908609E4935
:1027600008609E4908609E490860704710B59E4801
:10277000008808B1012000E00020024601219948AC
:1027800002F098FB9848008808B9012000E000207A
:102790009549088010BD8F48006840B98E48006890
:1027A00028B98E48006810B98D48006808B101202A
:1027B00070470020FCE730B50A24B0FBF4F3B0FB0F
:1027C000F4F504FB150203F130040C7002F130043F
:1027D0004C7030BD70B57F4C2468642594FBF5F1D6
:1027E0007C4C246894FBF5F605FB16440A2594FB03
:1027F000F5F2784C246894FBF5F605FB164301F1DD
:102800003004047002F13004447003F13004847029
:1028100070BD0EB5FFF7B9FB45F25840A0238022EA
:10282000002100900846FEF787FD0020102145F2A8
:1028300058424FF47843CDE9002102906BA20A215F
:102840000320FFF7DDF96C4864231A463721009016
:102850000A20FFF7B0FA0EBD0EB568495E48006861
:10286000FFF7A9FF6549C91E5C480068FFF7A3FF91
:102870006249891F5A480068FFF79DFF5F48C01CE6
:10288000FFF7A8FF0020102145F258424FF6FF73D2
:10289000CDE900210290594A921F1E211220FFF714
:1028A000AFF90EBD504800887047012804D00228B7
:1028B0000ED0032824D117E047490968491C464A2D
:1028C0001160114609683C2901D10021116017E00F
:1028D00042490968491C414A1160114609683C296E
:1028E00001D1002111600BE03D490968491C3C4AB7
:1028F000116011460968642901D10021116000BFEF
:1029000000BF7047012804D002280ED0032824D12C
:1029100017E031490968491E2F4A116011460968BC
:10292000002901DA3B21116017E02C490968491E92
:102930002A4A116011460968002901DA3B21116019
:102940000BE027490968491E254A116011460968AC
:10295000002901DA6321116000BF00BF70477FB515
:1029600005460C460121042001F021FA0295ADF83C
:1029700004400020ADF80600ADF80C0001A919488C
:1029800001F0F7FD01221146164802F093FA0121E9
:10299000144801F077FE1E208DF8000002208DF80B
:1029A000010004208DF8020001208DF80300684624
:1029B00000F025FE7FBD10B501210A4802F091FA12
:1029C000012805D1FFF786FE0121064802F09AFA98
:1029D00010BD0000580100204C01002050010020D3
:1029E00054010020000800403C010020434F554E98
:1029F00054494E4700000000E8D30108440100207C
:102A000008B5FFF7C2FA45F25840A0238022002102
:102A100000900846FEF790FCF84878231A462421D7
:102A200000900220FFF7C7F908BD0EB5F449002059
:102A300002F010FDF24880780090F1484378027867
:102A4000F0A1F44803F03AFB0020102145F258426F
:102A50004FF6FF73CDE900210290EE4A01210A20D2
:102A6000FFF7CEF8EC49002002F08EFDEA488078AE
:102A70000090E9484378C278E8A1ED4803F01EFBD6
:102A800000200C2145F258424FF6FF73CDE900219A
:102A90000290E74A15210A20FFF7B2F800200C2126
:102AA00045F25842CDE900210290DB480078401EF3
:102AB000E04901EB80024FF6E07315215020FFF74B
:102AC0009FF80EBD0EB54FF47840152374220121F6
:102AD00000906020FEF7B9FC0020102145F258421A
:102AE000CDE900210290C64800780C2801DCD2A074
:102AF00000E0D2A002464FF4784302216220FFF7A3
:102B00007FF8CF4878231A46242100900220FFF74F
:102B100052F90EBD0EB5BA49002002F09BFCB84830
:102B200000780C280CDDB64880780090B4484378D3
:102B30000078A0F10C02B3A1B64803F0BFFA09E097
:102B4000AF4880780090AE4843780278ADA1B14894
:102B500003F0B4FA0020102145F258424FF6FF73FB
:102B6000CDE900210290AB4A01210A20FFF748F885
:102B7000A949002002F008FDA74880780090A648E7
:102B80004378C278A5A1AA4803F098FA00200C2146
:102B900045F258424FF6FF73CDE900210290A44A56
:102BA00014210A20FFF72CF800200C2145F258428E
:102BB000CDE90021029098480078401E9D4901EB24
:102BC00080024FF6E07314215020FFF719F80EBD74
:102BD000F8B504460D4617461E468DF800408DF8A0
:102BE00001508DF802708DF803606946002002F0F4
:102BF000C7FBF8BD10B504469248814909680160D9
:102C0000012C1AD0022C0CD0032C1AD10078401CB5
:102C10008C49087008460078182801D100200870F7
:102C20000FE088484078401C864948700846407844
:102C30003C2801D10020487003E0002081498870C1
:102C400000BF00BF7F4B9A78597818780023FFF7B0
:102C5000BFFF10BD10B504467A4869490968016094
:102C6000012C1ED0022C0ED0032C1ED1007800287F
:102C700005DD74480078401E7249087002E0172094
:102C80007049087011E06F484078002805DD6D48F4
:102C90004078401E6B49487002E03B20694948700B
:102CA00003E000206749887000BF00BF654B9A7839
:102CB000597818780023FFF78BFF10BDF8B504464C
:102CC0000D4617461E468DF802708DF801508DF89E
:102CD00000608DF803406946002002F0EFFBF8BD6C
:102CE00070B5044658484C4909680160042C06D068
:102CF000052C10D0062C1AD0072C4BD13EE05248A0
:102D0000C078401C5049C8700846C078632801D17B
:102D10000020C8703EE04C484078401C4A4948704A
:102D2000084640780D2801D10120487032E046481D
:102D30008078401C44498870C878C11700EB9171B5
:102D4000891069B9404881784078401E3F4A52F85E
:102D50002000401C814210D101203B4988700CE0CA
:102D6000394881784078401E394A52F82000401C8A
:102D7000814202D10120344988700BE0324800784A
:102D8000401C3149087008460078082801D101200C
:102D9000087000BF00BF2C49C878C11700EB9171C3
:102DA000891089B9284881784078401E274A52F80E
:102DB0002000814219DD24484078401E114611F858
:102DC00020002149887010E01F4881784078401E1B
:102DD0001F4A52F82000814207DD1B484078401E00
:102DE000114611F8200018498870174D2B78AA78E1
:102DF0006978E878FFF762FF70BD0000581D02088F
:102E00005C010020253032643A253032643A2530A6
:102E1000326400006802002060010020323025305A
:102E200032642D253032642D2530326400000000DC
:102E30007C0200206C010020414D0000504D00003C
:102E4000788402086401002068010020B801002095
:102E50008801002070B50446FD48FE4909680160FC
:102E6000042C06D0052C12D0062C1ED0072C57D1CE
:102E700048E0F748C078002805DDF548C078401ED6
:102E8000F349C87002E06320F149C87048E0F04897
:102E90004078012805DDEE484078401EEC49487036
:102EA00002E00C20EA4948703AE0E949C878C117C5
:102EB00000EB9171891091B9E5488078012805DD12
:102EC000E3488078401EE24988701AE0E048407884
:102ED000401EE14911F82000DD49887011E0DC480E
:102EE0008078012805DDDA488078401ED84988704E
:102EF00007E0D7484078401ED84911F82000D4494F
:102F000088700DE0D2480078002805DDD0480078B0
:102F1000401ECF49087002E00720CD49087000BF6D
:102F200000BFCB49C878C11700EB9171891089B9EE
:102F3000C74881784078401EC74A52F82000814235
:102F400019DDC3484078401E114611F82000C049E1
:102F5000887010E0BE4881784078401EBF4A52F821
:102F60002000814207DDBA484078401E114611F822
:102F70002000B7498870B64D2B78AA786978E87830
:102F8000FFF79CFE70BD2DE9F04F87B0B4A0039011
:102F9000B5A0029000200190B548B64909680160CB
:102FA000AB48AC4909680160B348008800F40040B0
:102FB00000287CD0002400BF16E0B048015D0398D3
:102FC000005D81420ED0AD48015D0298005D8142F6
:102FD00008D0ABA003F066F8322000F025FA07B065
:102FE000BDE8F08F601C84B2042CE6DB0120059064
:102FF00000240AE0A148015D0398005D814202D0EF
:103000000020059003E0601C84B2042CF2DB00BFBA
:103010000120049000240AE09848015D0298005DB8
:10302000814202D00020049003E0601C84B2042C92
:10303000F2DB00BF0598012833D18F480088C0F328
:103040000D0006908D484079A0F130058B488079BD
:10305000A0F1300605EB850006EB400084490870BE
:103060008648007AA0F130078448407AA0F1300801
:1030700007EB870008EB400048708048C07AA0F159
:1030800030097E48007BA0F1300A09EB89000AEB89
:10309000400088700B469A78597818780023FFF71B
:1030A00097FD049801283FD17348008800E03CE078
:1030B000C0F30D00069071484079A0F130056F48CB
:1030C0008079A0F1300605EB850006EB40006049F1
:1030D000C8706A48007AA0F130076848407AA0F1C9
:1030E000300807EB870008EB400048706348C07A5F
:1030F000A0F130096148007BA0F1300A09EB89009A
:103100000AEB400088705D48807BA0F1300B81F8AD
:1031100000B08C469CF800309CF802209CF801100E
:103120009CF80300FFF7CAFD00BF00205249088049
:10313000322000F079F900BF51E73EB541F6FF7447
:103140000121080700F033FE012002F0FEFE0020FE
:1031500002F072FD45F25001884231D0012000F0AA
:103160007AFC04E0601C84B20A2000F05DF9412082
:1031700000F02AFC0028F5D00CB901203EBD4FF428
:10318000807000F069FD012000F081FD7F2001903A
:10319000FF20029000200090684602F056F80023BD
:1031A0001E2219211720FFF713FD062308220421F0
:1031B0001720FFF783FD45F25001002002F02FFD9C
:1031C0000020DBE7F0B587B004460D4616461F46E3
:1031D00000214FF4807002F0B1FA8DF800508DF8A4
:1031E00001608DF8027000208DF803008DF810400A
:1031F0004FF080400390002002900098019001AAB7
:103200004FF48071002002F0E2F94FF4805002F098
:10321000F5FD4FF4003002F084FE0121080302F0B6
:1032200081FD0121080202F089FA4FF40030059077
:1032300000208DF8180008208DF8190001208DF865
:103240001A0005A802F0FCFD2920104908701FE0B3
:103250006801002060010020B801002088010020E2
:1032600054494D453A000000444154453A0000009D
:10327000640100205C010020F40100209002002085
:103280000D0A4552524F52210D0A0000E80100205C
:103290000220487088700120C870084600F0AFF91D
:1032A00007B0F0BD7CB505460C46002002F0CBFA15
:1032B000284602F0A3FA204602F0B5FA4FF4804007
:1032C00002F09CFD4FF4800002F02BFE01218803E8
:1032D00002F028FD012002F0B6FA4FF480000090C1
:1032E00000208DF8040008208DF8050001208DF8DD
:1032F0000600684602F0A4FD03201649087002206B
:10330000487088700120C870084600F078F97CBDCC
:1033100010B54FF4807002F034FD012805D1000291
:1033200002F040FD0CA002F0BDFE4FF4003002F0B0
:10333000F8FD10BD10B54FF4806002F022FD0128A9
:1033400002D1800202F02EFD4FF4800002F0E9FD70
:1033500010BD0000E8010020414C41524D204121A8
:103360000D0A000010B504466FF0040000F094F957
:10337000E11704EB5171C1F3C701394A11701046CE
:10338000007800EB4001C1EBC0104FF6FF7101EA7D
:10339000C0003449088010BD0146314A12784A43C2
:1033A0004FF0E0235A6100229A611A46126942F0F6
:1033B00001021A6100BF4FF0E022106900F0010223
:1033C0001AB100F48032002AF5D04FF0E0221269E1
:1033D00022F001024FF0E0231A6100229A61704747
:1033E0000146204A12884A434FF0E0235A610022E6
:1033F0009A611A46126942F001021A6100BF4FF049
:10340000E022106900F001021AB100F48032002AB3
:10341000F5D04FF0E022126922F001024FF0E023D4
:103420001A6100229A61704770B504464FF4077024
:1034300094FBF0F0C6B24FF4077094FBF0F100FB80
:10344000114085B205E04FF40770FFF7C9FF701E09
:10345000C6B2002EF7D115B12846FFF7C1FF70BDE7
:10346000EC010020EE010020014600BF704700BFC4
:103470004C4A128802F04002002AF9D0C2B2494BED
:103480009A80704710B588B004460121084600F0C4
:1034900045FC0121102000F09BFC07220921424835
:1034A00000F029FA07220A213F4800F024FA4FF4DD
:1034B000C060069002208DF81C008DF81D000020D1
:1034C0008DF81E0001208DF81F0006A9364800F077
:1034D00087F902940020ADF80C00ADF80E00ADF8AD
:1034E0001000ADF814000C20ADF8120002A92D4810
:1034F00000F0CFFD01212B4800F053FE012240F2E5
:103500002551284800F003FF25208DF804000320F2
:103510008DF805008DF8060001208DF8070001A840
:1035200000F06DF808B010BD10B540F225511D48EF
:1035300000F028FF10B31B4800F062FEC4B21B4825
:10354000008800F40040C8B91848008800F48040A2
:1035500060B10A2C03D000201449088020E01348F1
:10356000008840F400401149088019E00D2C06D174
:103570000E48008840F480400C49088010E00B4859
:103580000088C0F30D000A490C5408480088401C0C
:103590000649088008460088C72801DD0020088009
:1035A00010BD00000010014000000240F4010020A6
:1035B000900200200948804709480047FEE7FEE7DF
:1035C000FEE7FEE7FEE7FEE7FEE7FEE7FEE7FEE7D3
:1035D00004480549054A064B70470000C51100081C
:1035E00089010008B8030020B8090020B8050020B0
:1035F000B805002032490143324A1160704770B566
:10360000002100230F22C4781CB32E4C246804F43C
:10361000E064C4F5E064C4F30721C1F10404E3B23B
:103620000A4144789C40E1B28478144021430C075D
:10363000210E254C05786155047804F01F050124FE
:10364000AC4005786D11AD0005F1E025C5F80041ED
:1036500009E0047804F01F050124AC401B4D0678F6
:10366000761145F8264070BD194A0A400243154BB1
:103670001B1F1A60704739B1124A121D12680243AB
:10368000104B1B1D1A6006E00E4A121D1268824381
:103690000C4B1B1D1A607047042808D14FF0E02125
:1036A000096941F004014FF0E022116107E04FF099
:1036B000E021096921F004014FF0E0221161704717
:1036C0000000FA050CED00E000E400E080E100E01D
:1036D00080FFFF1F10B504469848844208D101219D
:1036E000084600F086FB0021012000F082FB76E016
:1036F0009348844208D10121022000F07AFB002186
:10370000022000F076FB6AE08E48844208D1012155
:10371000042000F06EFB0021042000F06AFB5EE054
:103720008948844208D10121082000F062FB002171
:10373000082000F05EFB52E08448844208D1012159
:10374000102000F056FB0021102000F052FB46E054
:103750007F48844208D10121202000F04AFB00214B
:10376000202000F046FB3AE07A48844208D101214B
:10377000402000F03EFB0021402000F03AFB2EE00C
:103780007548844208D10121802000F032FB0021DD
:10379000802000F02EFB22E07048844208D10121F5
:1037A000801500F026FB0021A01500F022FB16E09A
:1037B0006B48844208D10121401500F01AFB00211A
:1037C000601500F016FB0AE06648844207D101212B
:1037D000001500F00EFB0021201500F00AFB10BDC3
:1037E000F0B50A4600210023002400BF3DE001257A
:1037F00005FA01F3156805EA03049C4234D1056813
:103800004F000326BE40B543056015794E00B54014
:103810000668354305601579012D02D01579022D12
:1038200016D185684F000326BE40B54385605579A3
:103830004E00B540866835438560456801268E4058
:10384000B5434560456896798E40B6B235434560CC
:10385000C5684F000326BE40B543C560D5794E000C
:10386000B540C6683543C560491C1029BFD3F0BDBB
:103870004FF6FF7101600021017141718171C171C9
:10388000704708B54FF480320092009A0A430092C4
:10389000009AC261C161009AC261C2690092C269A4
:1038A000009208BD0246002013690B400BB10120B5
:1038B00000E0002070470146086980B27047024668
:1038C000002053690B400BB1012000E0002070473D
:1038D0000146486980B27047018370474183704751
:1038E0000AB1018300E0418370474161704742693A
:1038F0004A4042617047F0B5002300244D07ED0EA9
:1039000002FA05F3CE1000F1200555F826504E07B7
:10391000F70E0F26BE40B543CF1000F1200646F843
:103920002750CE1000F1200555F8265045EA030433
:10393000CE1000F1200545F82640F0BD0000024001
:103940000004024000080240000C02400010024047
:103950000014024000180240001C024000200240F7
:103960000024024000280240F948006840F00100AD
:10397000F74908600020F64908310860F4480068FB
:10398000F4490840F2490860F348091D0860F3480B
:10399000EF4984310860F0481038091D0860EC4890
:1039A000006820F48020EA4908600020E8490C31D2
:1039B0000860E7498C31086070470021E44A921C96
:1039C000117011460870704710B50146002200239F
:1039D00000204A11012A02D1DD4C236808E0022AA6
:1039E00003D1DB4C7034236802E0D94C7434236873
:1039F00001F01F02012494401C400CB1012000E0A2
:103A0000002010BD38B5002000900024002500BF24
:103A10003120FFF7D9FF05460098401C0090009820
:103A2000B0F5A04F01D0002DF2D03120FFF7CCFF30
:103A300008B1012400E00024204638BD01460020E2
:103A4000C34A106820F0F80040EAC10010607047D7
:103A5000C349086070470021BD4A7032117011706F
:103A6000012802D004280AD104E00121B84A7032AA
:103A7000117005E00521B64A7032117000E000BFF8
:103A800000BF7047B7490860704770B5049C41EAB1
:103A900082150126C6EB530645EA0645054345EA6D
:103AA0000465AB4E361D356070BDAD490866704784
:103AB000820142EA0172A64B84331A607047A8491A
:103AC0008866704710B5830143EA016343EA0273D5
:103AD0009F4C8834236010BDA14908677047A049F6
:103AE000C864704702460020994B0833186820F0DC
:103AF000EC6042EA01031843954B083318607047A5
:103B000002460020924B0833186820F0784042EAC1
:103B1000010318438E4B083318607047014600209C
:103B20008B4A0832106820F0030008431060704789
:103B300087480830006800F00C00704701460020FC
:103B4000834A0832106820F0F00008431060704784
:103B5000014600207E4A0832106820F4E0500843F5
:103B60001060704701460020794A0832106820F43E
:103B7000604040EAC10010607047F0B500210022AB
:103B80000024022500260223714F08373F6807F002
:103B90000C0121B1042905D0082937D105E0724F65
:103BA000076036E0714F076033E0694F3F1D3F68A3
:103BB000C7F38056664F3F1D3F6807F03F036EB165
:103BC0006A4FB7FBF3F7DFF888C10CF1040CDCF89F
:103BD00000C0CCF3881C07FB0CF40CE0624FB7FB71
:103BE000F3F7DFF86CC10CF1040CDCF800C0CCF387
:103BF000881C07FB0CF4564F3F1D3F68C7F3014775
:103C00007F1C7D00B4FBF5F7076002E0564F0760AC
:103C100000BF00BF4E4F08373F6807F0F0010909A9
:103C2000534F7A5C0768D7404760494F08373F6871
:103C300007F4E051890A4E4F7A5C4768D7408760A5
:103C4000434F08373F6807F46041490B484F7A5C9F
:103C50004768D740C760F0BD002100F44072B2F55C
:103C6000407F0AD13A4A0832116821F4F811414ADA
:103C700002401143364A08321160354A70321268E8
:103C8000C0F30B031A43324B70331A607047354947
:103C900044390860704733494039086070473649F5
:103CA0000860704701460020294A8C32106820F0D5
:103CB0001F004A1E1043264A8C321060704701468E
:103CC0000020234A8C32106820F4F8504A1E40EA43
:103CD00002201F4A8C3210607047014600201C4AA7
:103CE0008C32106820F44010084310607047014681
:103CF0000020174A8C32106820F4400008431060FE
:103D0000704701460020124A8C32106820F440307F
:103D100008431060704719490860704739B10C4A70
:103D20003032126802430A4B30331A6006E0084A08
:103D3000303212688243064B30331A607047F9B153
:103D4000034A343212680243014B34331A601CE0D8
:103D500000380240FFFFF6EA103000240030002057
:103D600000004742800E47420024F40000127A000F
:103D7000F6010020FFFCFF0F5C014742E0114742C3
:103D80008F4A126882438E4B1A60704739B18C4A51
:103D9000121D126802438A4B1B1D1A6006E0884AF6
:103DA000121D12688243864B1B1D1A60704739B181
:103DB000834A0C3212680243814B0C331A6006E0CE
:103DC0007F4A0C32126882437D4B0C331A60704775
:103DD00039B17B4A103212680243794B10331A60B2
:103DE00006E0774A103212688243754B10331A602E
:103DF000704739B1724A243A12680243704B243B2F
:103E00001A6006E06E4A243A126882436C4B243BE7
:103E10001A60704739B16A4A203A12680243684B07
:103E2000203B1A6006E0664A203A12688243644BDF
:103E3000203B1A60704739B1614A1C3A126802434C
:103E40005F4B1C3B1A6006E05D4A1C3A12688243D5
:103E50005B4B1C3B1A60704739B1594A143A1268DF
:103E60000243574B143B1A6006E0554A143A126855
:103E70008243534B143B1A60704739B1504A103A91
:103E8000126802434E4B103B1A6006E04C4A103A4F
:103E9000126882434A4B103B1A60704739B1484A56
:103EA0001C3212680243464B1C331A6006E0444A37
:103EB0001C3212688243424B1C331A60704739B17E
:103EC0003F4A2032126802433D4B20331A6006E01D
:103ED0003B4A203212688243394B20331A607047C4
:103EE00039B1374A243212680243354B24331A6001
:103EF00006E0334A243212688243314B24331A607D
:103F0000704739B12E4A2C32126802432C4B2C33A5
:103F10001A6006E02A4A2C3212688243284B2C335E
:103F20001A60704739B1264A303212680243244B76
:103F300030331A6006E0224A303212688243204B46
:103F400030331A607047012808D11D493C31096897
:103F500041F008011A4A3C32116007E018493C312F
:103F6000096821F00801164A3C321160704739B1E6
:103F7000134A273A12780243114B273B1A7006E086
:103F80000F4A273A127882430D4B273B1A7070472D
:103F90000B484030006840F08070094940310860AB
:103FA000704701460020064A283A12680A400AB1C2
:103FB000012000E000207047014926390870704751
:103FC0003438024010B50446FA48844208D1012131
:103FD0001020FFF752FF00211020FFF74EFF57E09F
:103FE000F548844209D101214804FFF735FF00213B
:103FF0004FF40030FFF730FF4AE0F048844209D127
:1040000001218804FFF728FF00214FF48020FFF7EB
:1040100023FF3DE0EA48844209D10121C804FFF7AB
:104020001BFF00214FF40020FFF716FF30E0E548AA
:10403000844209D101210805FFF70EFF00214FF44A
:104040008010FFF709FF23E0DF48844208D10121F7
:104050002020FFF712FF00212020FFF70EFF17E0BE
:10406000DA48844209D101218807FFF7F5FE0021D3
:104070004FF08040FFF7F0FE0AE0D548844207D1B8
:1040800001214005FFF7E8FE00216005FFF7E4FE8F
:1040900010BD2DE9FF4705460E460024A14600BF8E
:1040A000A046B08900B100BF2C8A24F44054F088A7
:1040B00004432C82AC8941F20C608443B08831897E
:1040C0000843718908430443AC81AC8A24F44074EA
:1040D000B0890443AC826846FFF74FFDB54885427E
:1040E00002D0B948854202D1DDF80C9001E0DDF83C
:1040F0000890A88900F4004040B109EBC90000EB2A
:10410000091031684900B0FBF1F707E009EBC9007D
:1041100000EB091031688900B0FBF1F76420B7FBB0
:10412000F0F004012009642101FB1078A88900F453
:10413000004040B1322000EBC800B0FBF1F000F0CD
:104140000700044308E0322000EB08106421B0FBB4
:10415000F1F000F00F0004432C81BDE8FF874FF41D
:104160001651016000218180C18001810C214181B3
:1041700000218181704710B502460020108A20F48A
:1041800070600B884C8823438C882343CC8823435E
:104190001843108210BD0021018041808180C180C0
:1041A000704721B1828942F40052828104E0828901
:1041B0004DF6FF731A4082817047028B02F47F42F2
:1041C0000283028B0A430283704721B1828942F441
:1041D0000042828103E08289C2F30E02828170472D
:1041E00021B1828A42F40062828204E0828A4FF224
:1041F000FF731A4082827047C1F3080282807047C1
:1042000001468888C0F308007047028A4FF6F073B1
:104210001A400282028A0A430282704721B18289CF
:1042200042F00202828104E082894FF6FD731A4057
:104230008281704782894FF2FF731A40828182899E
:104240000A4382817047028A4FF6DF731A40028266
:10425000028A0A430282704721B1028A42F48042F4
:10426000028204E0028A4BF6FF731A400282704712
:10427000818941F001018181704721B1828A42F038
:104280000802828204E0828A4FF6F7731A40828223
:104290007047028BD2B20283028B42EA0122028370
:1042A000704721B1828A42F02002828204E0828A31
:1042B0004FF6DF731A408282704721B1828A42F042
:1042C0001002828204E0828A4FF6EF731A408282E3
:1042D0007047828A4FF6FB731A408282828A0A43B1
:1042E0008282704721B1828A42F00202828204E017
:1042F000828A4FF6FD731A40828270471AB1838A10
:104300000B43838202E0838A8B4383827047F0B53C
:104310000346002400260025002040F66A17B94213
:1043200000D100BF1846C1F3421401F01F06012757
:1043300007FA06F5012C01D10C3004E0022C01D162
:10434000103000E014301AB107682F43076002E014
:104350000768AF430760F0BD02460020B1F5007F5B
:1043600000D100BF13880B400BB1012000E00020FA
:10437000704701F40072B2F5007F00D100BFCA435C
:104380000280704770B502460024002300250020FB
:1043900040F66A16B14200D100BFC1F3421501F0E8
:1043A0001F03012606FA03F3012D13D1968933402A
:1043B00017E00000001001400044004000480040A9
:1043C000004C0040005000400014014000780040C4
:1043D000007C0040022D02D1168A334001E0968A0B
:1043E00033400C12012606FA04F41688344013B147
:1043F0000CB1012000E0002070BD10B500220023A8
:1044000040F66A14A14200D100BF0A120124944070
:10441000A3B2DC43048010BD10B50446FE488442BC
:1044200008D101210846FFF728FD00210120FFF7F0
:1044300024FD9DE0B4F1804F08D101210846FFF72B
:104440000BFD00210120FFF707FD91E0F3488442B6
:1044500008D101210220FFF7FFFC00210220FFF715
:10446000FBFC85E0EE48844208D101210420FFF7DF
:10447000F3FC00210420FFF7EFFC79E0E9488442D7
:1044800008D101210820FFF7E7FC00210820FFF7F1
:10449000E3FC6DE0E448844208D101211020FFF7DD
:1044A000DBFC00211020FFF7D7FC61E0DF488442ED
:1044B00008D101212020FFF7CFFC00212020FFF7A9
:1044C000CBFC55E0DA48844208D101210220FFF7F5
:1044D000D4FC00210220FFF7D0FC49E0D5488442FB
:1044E00009D101210804FFF7C8FC00214FF48030F6
:1044F000FFF7C3FC3CE0D048844209D101214804C5
:10450000FFF7BBFC00214FF40030FFF7B6FC2FE0B3
:10451000CA48844209D101218804FFF7AEFC00217A
:104520004FF48020FFF7A9FC22E0C548844208D15F
:1045300001214020FFF790FC00214020FFF78CFC78
:1045400016E0C048844208D101218020FFF784FC96
:1045500000218020FFF780FC0AE0BB48844207D19D
:1045600001218015FFF778FC0021A015FFF774FCEE
:1045700010BD00220288A84B98420ED0AC4B984246
:104580000BD0B0F1804F08D0A44B984205D0A44B7B
:10459000984202D0A34B984204D14FF68F731A4031
:1045A0004B881A43A04B984207D0A04B984204D0A6
:1045B0004FF6FF431A400B891A4302804B68C362CF
:1045C0000B880385944B984202D0994B984201D1B5
:1045D0008B7A03860123838270474FF0FF3141605D
:1045E00000210180018141808172704701858282B2
:1045F00070470A46002101884FF68F731940114316
:104600000180704741627047C16270470146486A45
:1046100070470146088D704721B1028842F00202BE
:10462000028004E002884FF6FD731A400280704752
:1046300021B1028842F00402028004E002884FF6B1
:10464000FB731A400280704721B1028842F0800259
:10465000028004E002884FF67F731A4002807047A0
:1046600002884FF6F7731A40028002880A430280DC
:10467000704702884FF6FF431A40028002880A43BF
:104680000280704721B1028842F00102028004E0FA
:1046900002884FF6FE731A400280704770B50024FE
:1046A00000220023058C4FF6FE7635400584028CEF
:1046B0008388048B4FF68F752C40B51E2C400D88D7
:1046C0002C43751E2A408D892A434D882A43524D1A
:1046D000A84202D0564DA84213D14FF6F7752A4092
:1046E000CD892A434FF6FB752A408D882A434FF621
:1046F000FF652B404FF6FF552B400D8A2B434D8A0B
:104700002B43838004838D684563028470BD70B53C
:10471000002400220023058C4FF6EF7635400584F7
:10472000028C8388048B48F6FF752C404FF6FF45BA
:104730002C400D884FF6FF7606EA05252C434FF6F0
:10474000DF752A408D8906EA05152A434D8806EA59
:1047500005152A43304DA84202D0354DA8421DD13F
:104760004FF67F752A40CD894FF6FF7606EA05158C
:104770002A434FF6BF752A408D8806EA05152A435D
:104780004FF6FF352B404FF2FF752B400D8A06EA9E
:1047900085052B434D8A06EA85052B4383800483D8
:1047A0008D688563028470BD70B5002400220023EB
:1047B000058C4FF6FF6635400584028C8388848B18
:1047C0004FF68F752C404FF6FC752C400D882C430E
:1047D0004FF6FF552A408D894FF6FF7606EA0525EC
:1047E0002A434D8806EA05252A430B4DA84202D0EC
:1047F0000F4DA84238D14FF2FF752A40CD894FF6B0
:10480000FF7606EA05252A434FF6FF352A408D88B4
:1048100006EA05252A4319E0000001400004004093
:1048200000080040000C0040001000400014004050
:1048300000040140004001400044014000480140A4
:1048400000180040001C0040002000404EF6FF759C
:104850002B404DF6FF752B400D8A06EA05152B43BC
:104860004D8A06EA05152B43838084838D68C563D2
:10487000028470BD70B5002200230024058C4EF622
:10488000FF7635400584038C8488828B48F6FF755B
:104890002A404FF6FF452A400D884FF6FF7606EA7C
:1048A00005252A434DF6FF752B408D8906EA05350F
:1048B0002B434D8806EA05352B43FE4DA84202D016
:1048C000FD4DA84208D14BF6FF752C400D8A4FF6DE
:1048D000FF7606EA85152C43848082838D68056403
:1048E000038470BD002101804180818081608181CD
:1048F000C18101824182704770B5034600200024C7
:104900001846183001258D40ACB21D8CA5431D847E
:1049100009B108290AD100EB610005684FF68F76CE
:10492000354005600568154305600FE00D1FC5F3B0
:104930004E052844056848F6FF7635400560056851
:104940004FF6FF7606EA02263543056070BD4163E7
:10495000704781637047C1637047016470470A46BE
:104960000021018B4FF68F7319401143018370476B
:104970000A460021018B48F6FF7319404FF6FF737A
:1049800003EA02231943018370470A460021818B01
:104990004FF68F7319401143818370470A460021F7
:1049A000818B48F6FF7319404FF6FF7303EA022329
:1049B0001943818370470A460021018B4FF6F77334
:1049C00019401143018370470A460021018B4FF2C1
:1049D000FF7319404FF6FF7303EA02231943018363
:1049E00070470A460021818B4FF6F7731940114337
:1049F000818370470A460021818B4FF2FF73194073
:104A00004FF6FF7303EA02231943818370470A4676
:104A10000021018B4FF6FB7319401143018370474E
:104A20000A460021018B4FF6FF3319404FF6FF7302
:104A300003EA02231943018370470A460021818B50
:104A40004FF6FB7319401143818370470A460021DA
:104A5000818B4FF6FF3319404FF6FF7303EA0223B1
:104A60001943818370470A460021018B4FF67F73FB
:104A700019401143018370470A460021018BC1F39D
:104A80000E014FF6FF7303EA0223194301837047B7
:104A90000A460021818B4FF67F73194011438183B1
:104AA00070470A460021818BC1F30E014FF6FF7358
:104AB00003EA02231943818370470A460021018CCF
:104AC0004FF6FD7319401143018470470A460021D7
:104AD000018C4FF6F77319401143018470470A4661
:104AE0000021018C4FF6DF7319404FF6FF7303EA84
:104AF00002131943018470470A460021018C4FF6C6
:104B00007F7319404FF6FF7303EA021319430184C0
:104B100070470A460021018C4FF6FF5319404FF6AB
:104B2000FF7303EA02231943018470470A460021F8
:104B3000018C4FF2FF7319404FF6FF7303EA022313
:104B40001943018470470A460021018C4DF6FF731A
:104B500019404FF6FF7303EA02331943018470478B
:104B600030B5002301248C40A3B2048C9C43048400
:104B7000048C02FA01F5ADB22C43048430BD30B58B
:104B8000002304248C40A3B2048C9C430484048C32
:104B900002FA01F5ADB22C43048430BD828B4FF292
:104BA000FF331A408283828B4FF6FF7303EA01239F
:104BB0001A4382837047F0B50C4615460021002247
:104BC0000026078C4EF6FF7C07EA0C070784818BD2
:104BD000028C4FF6FF7707EA043640F6FF4739406C
:104BE0004FF6FF7707EA052739434FF6FF7707EAC5
:104BF0000337394345F6FF773A4046F480573A4346
:104C000081830284F0BD828B4FF6F3731A40828356
:104C1000828B0A4382837047F0B50C46154600210B
:104C200000220026078C4FF6FF6C07EA0C0707846A
:104C3000818B028C4FF6FF7707EA04264FF60C773C
:104C400039404FF6FF7707EA03172F4339434FF2F6
:104C5000FF573A4046F480773A4381830284F0BD9F
:104C6000028B4FF2FF331A400283028B4FF6FF7321
:104C700003EA01231A4302837047F0B50C46154638
:104C8000002100220026078C4FF6EF7C07EA0C0774
:104C90000784018B028C4FF6FF7707EA041640F673
:104CA000FF4739404FF6FF7707EA033739434FF69E
:104CB000FF7703E0000001400004014007EA0527F8
:104CC00039434FF65F773A4046F010073A43018385
:104CD0000284F0BD028B4FF6F3731A400283028BFD
:104CE0000A4302837047F0B50C46154600210022A6
:104CF000068C4FF6FE773E400684018B028C4FF601
:104D00000C7631407E1C06EA03162E4331434FF6E3
:104D1000F576324044F00106324301830284F0BD4F
:104D200070B505460C46208850B92389A288618851
:104D30002846FFF7D8FFE1882846FFF7CBFF25E09C
:104D4000208804280AD12389A28861882846FFF791
:104D500094FFE1882846FFF783FF17E020880828A2
:104D60000AD12389A28861882846FFF755FFE18888
:104D70002846FFF748FF09E02389A2886188284672
:104D8000FFF719FFE1882846FFF708FF70BD0021F3
:104D900001804180012181800021C1800181704713
:104DA0002DE9F04105460C4600260127608808B928
:104DB000022600E00026A088012801D1022700E099
:104DC00001272088A0B92389A28861882846FFF797
:104DD0008AFFE1882846FFF77DFF23893A4631465E
:104DE0002846FFF74AFFE1882846FFF739FF13E01E
:104DF0002389A28861882846FFF73FFFE18828467B
:104E0000FFF72EFF23893A4631462846FFF76BFF0E
:104E1000E1882846FFF75EFFBDE8F0810146486B58
:104E200070470146886B70470146C86B7047014662
:104E3000086C70470A884B881A438B881A43CB88C2
:104E40001A430B891A434B891A438B891A43A0F8DA
:104E5000442070470021018041808180C180018110
:104E600041818181704731B1B0F8442042F4004261
:104E7000A0F8442005E0B0F84420C2F30E02A0F8E8
:104E80004420704721B1828842F00402828004E00D
:104E900082884FF6FB731A408280704721B1828866
:104EA00042F00102828004E082884FF6FE731A40CD
:104EB000828070471AB183890B43838102E0838922
:104EC0008B43838170478182704702460020138A9A
:104ED0000B400BB1012000E000207047CA43028262
:104EE000704730B50246002000230024158A05EAE9
:104EF0000103958905EA010413B10CB1012000E01A
:104F0000002030BDCA430282704741EA0203A0F884
:104F1000483070471AB183890B43838102E083894B
:104F20008B438381704721B1828842F008028280DE
:104F300004E082884FF6F7731A4082807047018937
:104F40004FF6F8721140018170470A46002101892D
:104F50004FF68F73194011430181704730B50446F5
:104F60000D4629462046FFF7F0FF208940F0070054
:104F7000208130BD2DE9F04104460D4616461F46FE
:104F8000602D06D13B46012231462046FFF775FED3
:104F900005E03B46012231462046FFF7A4FE2946A4
:104FA0002046FFF7D2FF208940F007002081BDE8AE
:104FB000F08130B50C4600210189C9B24FF6FF756A
:104FC00005EA0325154325432943018130BD2DE919
:104FD000F04105460E4617469846002443463A4699
:104FE00031462846FFF7E5FF2C894FF6F87004405C
:104FF00044F007044FF68F70044044F070042C8195
:10500000BDE8F081F0B504460D4616461F463B4606
:10501000324629462046FFF7CCFF208940F48040E5
:105020002081F0BD82884FF68F731A40828082887B
:105030000A438280704702894FF6F8731A40028152
:1050400002890A430281704702894FF67F731A4032
:10505000028102890A4302817047F0B50C46154669
:105060001E460021002200230189028B038C4FF68B
:10507000F877394021434FF6FC473A4040F2011798
:105080003A434FF6DD773B404FF6FF7707EA0617C6
:105090002F433B43018102830384F0BD21B1828809
:1050A00042F08002828004E082884FF67F731A40CB
:1050B00082807047A0F850107047000008B50022A9
:1050C000009200200021CA22F94B1A6053221A6074
:1050D000F74A183A126822F0A002F54B183B1A6002
:1050E00000BFF34A183A126802F02001009A521CDD
:1050F0000092009AB2F5003F01D00029F1D0EC4AAD
:10510000183A126802F020020AB1012000E00020E3
:10511000FF22E74B1A6008BD08B50022009200206C
:105120000021E34A183A126802F04002E2B9421E36
:10513000DF4B183B1A6000BFDD4A183A126802F0D4
:105140004001009A521C0092009AB2F5803F01D0B3
:105150000029F1D0D64A183A126802F040020AB18A
:10516000012002E0002000E0012008BD38B5002049
:10517000009000240025CA20CD4908605320086013
:10518000FFF7CAFF00B952E00020C949243908607E
:1051900042F20110091D0860081D006800F00700B8
:1051A000091D086000BFC2481838006800F00404F8
:1051B0000098401C00900098B0F5803F01D0002C72
:1051C000F1D0BB481838006800F0040008B9002589
:1051D0002DE0B7481C3800680020B5491C3908602C
:1051E0004FF6FF70B24910390860B248091F0860D5
:1051F0000020AF490C390860091D0860091D0860CE
:10520000AB4908310860AA4918310860A849203123
:105210000860091D0860A64918390860A4491C31B6
:105220000860FFF74BFF08B9002500E00125FF20CB
:105230009F490860284638BD9D481838006820F00E
:1052400080009B4918390860704730B50446002536
:10525000CA209749086053200860FFF75DFF00B936
:105260001DE093481C38006820F0400090491C392C
:10527000086008460068216808438D491C390860A9
:105280008B491439A068086008460068A18840EA84
:105290000140874914390860FFF7CEFF0125FF2040
:1052A00083490860284630BD002101607F214160AC
:1052B000FF218160704718B1FF217D4A116004E031
:1052C000CA217B4A116053211160704730B50446F2
:1052D0000025CA207649086053200860FFF71CFFAC
:1052E00000B914E044B172481C38006840F0100066
:1052F0006F491C39086007E06D481C38006820F0D1
:1053000010006B491C390860FFF796FF0125FF204C
:1053100067490860284630BDCA21654A116053219B
:10532000116040B162491C39096841F02001604AAE
:105330001C3A116007E05E491C39096801F0DF0181
:105340005B4A1C3A1160FF21594A116070470146BF
:10535000002204E0501CC2B2A1F10A00C1B20A2925
:10536000F8DA100741EA10607047014600BF0809EB
:1053700000EB8000420001F00F001044C0B2704703
:105380002DE9F04105460C460026002755B948484E
:105390001C38006800F0400000B102E00020E0701E
:1053A00000BF0EE042481C38006800F0400020B109
:1053B0002078FFF7DAFF064602E00020E07000BF29
:1053C00000BF55B120780004617840EA0120A1783F
:1053D0000843E17840EA014611E02078FFF7B7FF83
:1053E0004FEA00486078FFF7B2FF48EA0028A0784B
:1053F000FFF7ADFF48EA0008E07848EA0046CA2017
:105400002B49086053200860FFF786FE08B9002783
:1054100014E029483040264924390860FFF70CFF82
:1054200023481C38006800F0200030B9FFF746FE22
:1054300008B9002702E0012700E00127FF201C49EE
:1054400008603846BDE8F0810021C17001704170EC
:105450008170704770B506460C4600251448243804
:105460000068154900EA0105C5F305402070C5F341
:105470000620607005F07F00A07005F48000000C2D
:10548000E0705EB92078FFF770FF20706078FFF75A
:105490006CFF6070A078FFF768FFA07070BD0020FF
:1054A0000349091D0868024920390968704700004E
:1054B00024280040FF007F007F7F7F002DE9F0411E
:1054C00005460C46002600274DB9607800F0100014
:1054D000102804D1607820F010000A30607005B9FF
:1054E00008E06078FFF741FF0646A078FFF73DFF30
:1054F000064600BF55B1E0780004617840EA01201B
:10550000A1780843217840EA413611E0E078FFF7BE
:105510001EFF4FEA00486078FFF719FF48EA0028AD
:10552000A078FFF714FF48EA0008207848EA4036E0
:10553000CA20FE49086053200860FFF7EDFD08B956
:10554000002714E0FA483040F84920390860FFF796
:1055500073FEF6481C38006800F0200030B9FFF7F1
:10556000ADFD08B9002702E0012700E00127FF2078
:10557000EE4908603846BDE8F08101210170817074
:1055800041700021C170704770B506460C46002579
:10559000E64820380068E64900EA0105280CE0707A
:1055A000C5F30420607005F03F00A070C5F34230E1
:1055B00020705EB9E078FFF7D8FEE0706078FFF702
:1055C000D4FE6070A078FFF7D0FEA07070BD2DE90A
:1055D000F04105460E46144600276DB9D3481C38E5
:1055E000006800F0400000B102E00020E07000BF61
:1055F000A06800B91AE019E0CC481C38006800F037
:10560000400020B12078FFF7B0FE074602E00020FE
:10561000E07000BFA06820B9207BFFF7A6FE074618
:1056200004E0207BFFF7A1FE074600BF95B120787C
:105630000004617840EA0120A1780843E17840EA5B
:105640000140217B40EA0160A1680843616840EAAB
:1056500001071BE02078FFF77AFE4FEA00486078E8
:10566000FFF775FE48EA0028A078FFF770FE48EAC9
:105670000008E07848EA0048207BFFF768FE48EA27
:105680000060A1680843616840EA0107CA20A74991
:10569000086053200860B6F5807F03D1A34808381E
:1056A000076002E0A148001F0760FF209F490860D3
:1056B000BDE8F0810021C17001704170817081608E
:1056C000012101730021416070472DE9F041064638
:1056D0000F4614460025B7F5807F03D1934808385C
:1056E000056802E09148001F0568C5F30540207079
:1056F000C5F30620607005F07F00A07005F48000FF
:10570000000CE070C5F30560207305F08040A060D8
:1057100005F0803060607EB92078FFF726FE2070AB
:105720006078FFF722FE6070A078FFF71EFEA07081
:10573000207BFFF71AFE2073BDE8F08138B50246E2
:105740000024009400230020CA24784D2C605324A8
:105750002C6041B1754C1C3C24681443734D1C3DB6
:105760002C6001201EE0714C1C3C246894436F4D5A
:105770001C3D2C6000BF6D4C183C246804EA1223C9
:10578000009C641C0094009CB4F5803F01D0002B69
:10579000F1D0664C183C246804EA12240CB90020AD
:1057A00000E00120FF24614D2C6038BD30B500239E
:1057B000CA245E4D2C6053242C6041EA0203B0F5EC
:1057C000807F03D1594C2034236002E0574C2434AD
:1057D0002360FF24554D2C6030BD01460020B1F5FB
:1057E000807F05D1514A20321268C2F30E0004E0D6
:1057F0004E4A24321268C2F30E007047CA214B4A47
:1058000011605321116049491C39096821F00701D1
:10581000464A1C3A11601146096801431160FF2194
:10582000424A11607047CA21404A116053211160F9
:105830003E4910390860FF21116070473B4810381D
:10584000006880B2704718B501460023009300221B
:105850000020CA23354C23605323236049B1334BC6
:105860001C3B1B6843F48063304C1C3C23600120CC
:105870001FE02E4B1C3B1B6823F480632B4C1C3C0D
:10588000236000BF294B183B1B6803F00402009BF8
:105890005B1C0093009BB3F5803F01D0002AF1D040
:1058A000224B183B1B6803F004030BB9002000E0F7
:1058B0000120FF231D4C236018BDCA221B4B1A6018
:1058C00053221A60194A1C3A126822F48022174B9C
:1058D0001C3B1A601A46126840EA01031A43134B34
:1058E0001C3B1A60FF22114B1A6070470F481C388E
:1058F000006800F480207047CA220C4B1A605322C3
:105900001A600A4A1C3A126822F4E002074B1C3B58
:105910001A601A46126840EA01031A43034B1C3B03
:105920001A60FF22014B1A607047000024280040D3
:105930003FFFFF0070B504460D460026CA20F64919
:10594000086053200860FFF7E7FB00B907E044EA6E
:105950000500F1490C390860FFF76EFC0126FF20B5
:10596000ED490860304670BD30B504460025CA20B8
:10597000E949086053200860FFF7CEFB00B914E046
:1059800044B1E5481C38006840F08000E2491C3909
:10599000086007E0E0481C38006820F08000DE491D
:1059A0001C390860FFF748FC0125FF20DA49086030
:1059B000284630BDCA21D84A11605321116040B138
:1059C000D5491C39096841F40001D34A1C3A1160D9
:1059D00007E0D1491C39096821F40001CE4A1C3A7C
:1059E0001160FF21CC4A11607047CA21CA4A116078
:1059F00053211160C8491C39096821F40021C64AA5
:105A00001C3A11601146096801431160FF21C24A26
:105A10001160704770B5034600200024CA25BE4EB1
:105A2000356053253560BC4D183D2D6805F4803533
:105A300055B100E0641CB84D183D2D6805F4803563
:105A400015B1B4F5003FF5D1B34D183D2D6805F4FF
:105A500080353DB943EA01051543AF4E1836356030
:105A6000012000E00020FF25AB4E356070BD10B571
:105A70000A460021A84B1C3B1B6840F6080423EA99
:105A800004011AB140F40063194300E00143CA2342
:105A9000A14C2360532323609F4B1C3B1960FF23C1
:105AA000236010BD2DE9F04180460C4615460026C6
:105AB000002799480C300068984900EA010696488A
:105AC00010300068964900EA0107C6F305402070CF
:105AD000C6F30620607006F07F00A07006F4800018
